:020000040020DA
:10200000587100208D222000E3AE2000E1AE2000B8
:10201000E1AE2000E1AE2000E1AE200000000000B3
:1020200000000000000000000000000025C02000AB
:10203000E1AE20000000000043C0200045AF2000BA
:1020400057AF20005DAF200063AF200069AF2000D4
:10205000000000004BAF200051AF2000E1AE200097
:10206000E1AE2000000000000000000000000000C1
:102070000000000000000000E1AE200000000000B1
:102080000000000000000000E1AE2000E1AE2000F2
:10209000E1AE2000E1AE2000E1AE2000E1AE200084
:1020A000E1AE2000E1AE2000E1AE2000E1AE200074
:1020B000E1AE2000E1AE2000E1AE2000E1AE200064
:1020C000E1AE2000E1AE2000E1AE2000E1AE200054
:1020D000E1AE200000000000000000000000000051
:1020E00000000000000000000000000000000000F0
:1020F00000000000000000002938200039382000CE
:1021000000000000000000000000000000000000CF
:1021100000000000000000000000000000000000BF
:1021200000000000000000000000000000000000AF
:10213000000000000000000000000000000000009F
:10214000000000000000000000000000000000008F
:10215000000000000000000000000000000000007F
:10216000000000000000000000000000000000006F
:10217000000000000000000000000000000000005F
:10218000000000000000000000000000000000004F
:10219000000000000000000000000000000000003F
:1021A000000000000000000000000000000000002F
:1021B000000000000000000000000000000000001F
:1021C000000000000000000000000000000000000F
:1021D00000000000000000000000000000000000FF
:1021E00000000000000000000000000000000000EF
:1021F00000000000000000000000000000000000DF
:1022000000000000000000000000000000000000CE
:1022100000000000000000000000000000000000BE
:1022200000000000000000000000000000000000AE
:10223000000000000000000000000000000000009E
:10224000000000000000000000000000000000008E
:10225000000000000000000000000000000000007E
:10226000000000000000000000000000000000006E
:10227000E1AE20000D37200031372000C12D2000B5
:1022800099392000E5282000E1AE2000FF224824F3
:1022900008B5084B08481A60084AE369121A084949
:1022A00098470848084AA369121A0021984700F085
:1022B0000DF8FEE7B4200D4040400020FD41002015
:1022C000ACCA20000042002057690020F7B500F09A
:1022D00057FC00F011FD00F06DFC00F067FA01F012
:1022E00049FB08F0EFFE00F0FFFC00F0C7F801200A
:1022F00008F0FAFD02F060F900F02EFC002000F07A
:1023000049FB012000F046FB4849002000F00EFC8C
:1023100002F098FA62B6042008F0E6FD444808F09E
:1023200047FE444808F044FE00F0E2F9002002F0C5
:1023300037FB01F011FA00213F4802F0CBF901F020
:1023400063FF08F0FDFD00F05FFD00F07BFD07F08E
:10235000B1FB0821684601F033FB9DF806309DF87B
:102360000760364C46EA03266B4603CB20603448B0
:102370006160002501F05EFB324F615D384601353A
:1023800001F058FB072DF8D12F4FE1792F4801F0CC
:1023900051FBFD6A4AF6CD310220A84731460320A1
:1023A000A8471A210120A847694608227B6B0B2009
:1023B0009847274801F03EFB264B186808F0F8FDC7
:1023C000254801F037FB254B186808F0F1FD24483B
:1023D00001F030FB234B186808F0EAFD224A23681D
:1023E00013606368536007F091F800211F4802F002
:1023F00071F900211E4802F06DF91E4B01219B6806
:102400008120984708F02DFE1B4808F020FE00F0C0
:10241000A9FB022008F068FD00F0AAFB02F0E4F836
:1024200010F0FF0FF8D101F03BFAF5E7FD4720006F
:10243000DCC72000F8C72000784000204F6900204A
:102440001DC820003BC82000A8C6200041C82000AD
:1024500047C8200070C720004EC820007CC720005D
:1024600055C82000A4C72000345F00201841002078
:102470009840002030C62000D4C7200008B500F0E6
:10248000DDF80022014B1A7008BD00BFC0560020C5
:10249000024A13781843107000F0F4B8C0560020B8
:1024A000034A137823EA0000107000F0EBB800BF75
:1024B000C056002018B1012804D000207047034BFB
:1024C00018687047024B1878704700BF20900D4085
:1024D000C156002010B5094A00201378013313704B
:1024E000074B197802F0CEF8BDE8104005490023EB
:1024F000054A0968054801F0BDBE00BFC15600206D
:102500004669002038420020D524200018420020CF
:10251000812808B52BD0B0F5807F3AD0802824D10F
:1025200002F042F81C4B1D4A18701368032123F077
:102530000803136052F8203C002023F0080342F8FF
:10254000203C52F81C3C23F0080342F81C3C52F893
:10255000183C43F0080342F8183C042200F0DAFB70
:10256000032200210E4800F077FB012108E00D4B0B
:102570000D481A6831B142F008021A600123036065
:10258000084608BD22F008021A600123C0F8803016
:10259000F6E7064B1960E8E74669002020940D40F5
:1025A000B125200010940D4000E100E038420020E9
:1025B00008B50F4808F09AFDC8B108210C4808F08A
:1025C00083FD0C4B196849B100220B4B1A700B4B61
:1025D0001B6843B90A4A0B4801F04CFEBDE80840AD
:1025E000094802F0ADB9074801F086FEF6E708BDDC
:1025F0001042002038420020C156002020900D409B
:10260000D52420001842002030C62000084A136854
:1026100023F00403136052F8203C43F0040342F813
:10262000203C0022034B1A600122034B1A707047B2
:1026300020C40D4010C00D40C25600200D4A0E4966
:10264000136823F0C003136052F8203C43F0C0032A
:1026500042F8203C0022094B1A600B6823F010035B
:102660000B6051F8203C43F0100341F8203C044B30
:102670001A60704720A40D4020C40D4000A30D40F7
:1026800040C00D4010F0020218BFFF22084B1A6034
:1026900010F0040218BFFF22064B10F001001A6070
:1026A00018BFFF22044B14BF1A601860704700BFA8
:1026B00000A20D4000A10D4040C00D40044B186821
:1026C000C0F30720030904BF1030C0B2704700BF39
:1026D0001C300D40054B1868C0F3C21001289ABF8A
:1026E000C0F1020040034FF40040704714300D4029
:1026F0002DE9F047482588B0FFF7E0FF164B074665
:102700001C68AB6898476B68804698470546FFF79A
:10271000E1FF064600F088FA814600F091FA824611
:1027200000F03EFAB60A04F00103AD0AC4F3400417
:1027300006900393CDF814A0CDF810900294019662
:10274000009507F00F03C7F307124146034801F055
:1027500071F908B0BDE8F0871C300D4063C8200057
:10276000F8B500F081F80F4B0024D3E900673A4632
:10277000B04238BF7A1C15460443C3E900450A49F4
:10278000D1E90023921B63EB070312196B41C1E9E6
:10279000002301F071FE18B1BDE8F84001F0F0BD72
:1027A000F8BD00BF0842002000420020E0210D4B90
:1027B0000D4A5A600D4A82F82310002207219A60C0
:1027C00019600B490B6843F001030B60094B1A6059
:1027D000042243F80C2C012243F8082C0F22DA6261
:1027E000704700BF10E000E047E8010000ED00E0A6
:1027F00008200D400C000340034BD3E90023100ACE
:1028000040EA0360704700BF08420020034BD3E951
:102810000023D00B40EA4340704700BF0042002035
:10282000054B18601C3B1A6842F001021A601A68D6
:10283000D207FCD4704700BF2800034010B5064CF7
:10284000236823F001032360FFF78AFF236843F026
:102850000103236010BD00BF10E000E0014B1868C9
:10286000704700BF3C420020064B18685A68083386
:102870001B681B0443EA0223034A0343106843EA2C
:102880000060704740500D404C500D40014608B567
:10289000104A1368DB07FCD572B6FFF7E5FF0B1A89
:1028A000062BD8BFC11D0C4B0A0E1A60C1F307429C
:1028B00043F8042CC1F3072243F8082CCAB243F8AA
:1028C0000C2C62B64FF40032044B1960044B1A61B1
:1028D00008BD00BF50500D404C500D403C42002000
:1028E00000E100E008B500F0C3FF0022064B1A60CB
:1028F0004FF40032054BC3F89021C3F89020BDE897
:10290000084001F01DBF00BF3C42002000E100E094
:10291000064B1B681B075FBF054B186880F008005B
:10292000C0F3C00048BF0020704700BF18C000407F
:1029300018D000402C23154A70B503FB00234FF636
:10294000BF72DC680546236C626413F050021BD131
:1029500013F4D06F0BD04FF440732363FF236360F5
:10296000E36AE262E362236B43F00103236370BD19
:1029700056F8253033B12068C0B29847A369DB060A
:10298000F6D570BD2368F9E7014EF7E740C6200091
:102990004042002001282DE9F74F064600F2B4809E
:1029A0002C2545435A4F7C1994F92080B8F1000F2B
:1029B000C0F2AA8094F92290B9F1000FC0F2A4806D
:1029C000544800F0C7FF544A79591368E5680B432F
:1029D00013605368616894F921A00B4353609368B6
:1029E000A1685FFA89FB0B4393600023C5F8C83FD9
:1029F00023690AEBC8021A6094F92330227D009300
:102A00009DF8003058461946019300F08DF9019B5E
:102A100008221946584600F07DF901233F494FEA44
:102A20000939009A59F8010003FA02F2024349F801
:102A300001204FEA083858F8010003FA0AF202436D
:102A400048F801205022AA63AA6B94F9240042F4AA
:102A5000D062AA6302226A634FF440722A63A269B9
:102A600000286A62E269AA624FF07002EA620D46CB
:102A700014DB94F925102A4A41EAC00414600203C9
:102A800054598B4023435351C9B20022C0B200F0C5
:102A900041F9244A136843F4004313602C2303FBD9
:102AA000067393F92640002C1BDB93F927A05FFAED
:102AB00084F85FFA8AF901224946404600F034F969
:102AC00001232403625903FA0AF3134363510822D2
:102AD0004946404600F01EF9124A136843F4804309
:102AE00013602C2303FB0676F268136B43F001039B
:102AF0001363012296F82830590903F01F0302FAE4
:102B000003F3094A42F8213003B0BDE8F08F00BF5B
:102B100040C620001129200028200D4020940D409F
:102B200004410D4030D0004000E100E001289CBF8E
:102B3000014B43F82010704740420020012808D87C
:102B40002C22044B02FB0030C3689A699206FCD425
:102B50001960704740C620000022014B1A60704780
:102B600000500D400822014B1A60704700500D4084
:102B7000A022024B1A6050221A60704700500D408C
:102B8000014B024A9A60704700ED00E000202000EF
:102B9000024B1868C0F38150704700BF04200D40FD
:102BA00008B5FFF7F5FF024B53F8200008BD00BF42
:102BB00098C6200038B5164D164C2B68012223F01C
:102BC00040032B602368062123F040032360032089
:102BD00000F0A0F82B68012223F080032B6023680B
:102BE000072123F080032360032000F093F80A4AB2
:102BF0000A4B0B491A600B4A134610680842FCD175
:102C00001A685101FCD41A685201FCD538BD00BFC6
:102C100020C40D4000C40D400101020000200D4001
:102C20000000010104200D40034B04481B6803F021
:102C300007031841704700BF04200D400048E80119
:102C4000034B04481B68C3F302231841704700BFBD
:102C500004200D400048E801024B02EBC10243F89A
:102C60002200704748420020F8B507460E4600246F
:102C7000084D05EB411547FA04F3DB07E1B204D533
:102C800055F824300BB1304698470134082CF2D166
:102C9000F8BD00BF484200202DE9F04780464FEACA
:102CA0000837DFF8409007F1804505F5592500F019
:102CB000DFFDD5F8186457F809404FEAC80A24FA2E
:102CC0000AF446EA0400E4B24146C0B2F6B204FA9D
:102CD0000AF4FFF7C9FFC5F81C6447F80940BDE8CE
:102CE000F08700BF18970D4080220021014808F0AE
:102CF000A9B800BF48420020034A044B1A60044BA5
:102D0000803A1A60704700BF80400D40C8420020E2
:102D1000CC420020034B01EBC0011B6843F821208B
:102D2000704700BFC8420020034B01EBC0011B6885
:102D300043F82120704700BFCC4200200E2870B518
:102D40000BD1154B154E1C6844F002051D6035680B
:102D500025F03F0343F001033360114E336823F045
:102D6000FF031A43114301430E4A316013681B06E7
:102D7000FCD50D4B0D4A1B6812680E2803F0FC03AE
:102D800043EA022308BF054A1BB204BF1560024A8A
:102D9000184608BF146070BD34000144F486084032
:102DA00008700D4000700D400C700D4010700D400B
:102DB000024B1868B0FA80F04009704700B708402D
:102DC0004FF4004210B5064B064CC3F89021C3F8EF
:102DD0009020206818B101F095FC0023236010BDFD
:102DE00000E100E0D0420020064A136843F00203ED
:102DF0001360536843F002035360936843F0020387
:102E00009360704748200D4007B50C4800F0A2FDC4
:102E1000FFF7EAFF0A4B1A6842F002021A6000222A
:102E20000192019A0F2A06DD1A6822F002021A6046
:102E300003B05DF804FB019A0132F1E7B12D2000E7
:102E400054200D40064A136823F0020313605368B0
:102E500023F002035360936823F0020393607047EA
:102E600048200D40084B93F90020002A09DBED2192
:102E7000064A11601160E32111601A7862F07F0246
:102E80001A700120704700BFC556002038880840DE
:102E90000B4B1A689207FCD41B685B065FBFED22E0
:102EA000084B1A601A60084B1B6813B1EF22054BE0
:102EB0001A60064A0120137803F07F0313707047ED
:102EC0004C860840388808402C860840C5560020AB
:102ED000A0F10B01CBB20F2B10B5044613D80B4B4E
:102EE0001B6813F03F0302D0FFF7D2FF012301EB71
:102EF0008101074A0B3111600BB1FFF7B3FF054B9E
:102F000060B21C7010BD4FF0FF3010BD4886084005
:102F10003C860840FA41002008B50B4B1B68990617
:102F20000FD1FFF79FFF012308490A68D207FCD59C
:102F3000074A1168C1F300110BB1FFF7A9FF08465A
:102F400008BD0023F0E700BF4886084064860840BB
:102F50004C860840044B186800F02200A0F12003C2
:102F600058425841704700BF4C860840024B1868D1
:102F700000F04000704700BF4C86084010B50C467A
:102F8000002900F08680102800F28580DFE800F03C
:102F900009101B22243B44575C727683837B7D544B
:102FA0007F003E4B1B68003318BF0123236024E0E1
:102FB00005223B4B1B6803F07F030B3B93FBF2F3B3
:102FC0000B33DBB2F2E7374B1A68043B1B6843EA6A
:102FD0000223EBE7344BF7E700230B60334B344A13
:102FE0001B6803F001030B601268900644BF43F0B6
:102FF00002030B602F4B1B780BB9002010BD0B6830
:1030000043F00403D2E700202B4B08601B78002B11
:10301000F3D001230B6010BD284B29491A68002307
:10302000D2B201EBC3000079904202D851F833309C
:10303000BCE701330E2BF4D16FF01703B6E7214B39
:103040001B685BB2493BB1E71F4B1B6899060FD168
:10305000FFF708FF01231D490A68D207FCD51C4A67
:103060001168493949B20BB1FFF712FF2160C4E77B
:103070000023F0E7174B93F9003097E7164B1B78C6
:1030800003F07F0392E70B2390E71A238EE70723D1
:103090008CE7022010BD012010BD00BF2C86084027
:1030A0003C860840CC850840D4850840008608400E
:1030B00024860840C4560020FB410020408608407A
:1030C000E0C62000588608404886084064860840CC
:1030D00060860840C6560020C356002038B5054615
:1030E0000C46134A13689B07FCD4124B93F900302B
:1030F000002B01DBFFF7B6FEEE220F4B691E1A60B4
:103100001A60A21C43F8102C2144022000F03EFB60
:103110000A49013C41EA0411022000F049FB022067
:1031200000F050FB022000F065FB002038BD00BF1E
:103130004C860840C55600203888084002C001C0AF
:10314000F8B5214B93F90030002B2BDBFFF78CFBFC
:103150000446FFF787FEC4F1FF2404F57F04F6342C
:10316000FFF782FBC442FBD40126184B1B78DBB966
:10317000174C236899061BD4E9230427154D2B60AF
:1031800023689A0703D4013F17F0FF0713D1236880
:103190009B0714D4EE2301212B602B604EB1FFF767
:1031A00077FE06E00026E0E7FFF7B6FE0028DFD155
:1031B00002210846F8BD0620FFF732FBE0E7216850
:1031C00011F00201FBD1E9E7C5560020FB410020C8
:1031D0004C86084038880840204B1870002832D0B0
:1031E0001F4A13681B03FCD51E4B1A6842F00202EB
:1031F0001A601A6842F001021A601A685007FCD57A
:103200001A6822F001021A601A685107FCD41A6881
:1032100042F002021A601A6842F001021A601A684B
:103220005207FCD5104A136823F004031360D2F848
:10323000A83123F00403C2F8A8314FF400520B4B1D
:10324000C3F890207047084A136843F004031360E2
:103250004FF40052054B1A61704700BFC45600205E
:1032600004200D40048808408C86084000E100E0FE
:1032700010B5072861D8DFE800F0040F1A212541B6
:10328000475B012903D1FFF7EDFD002010BD0029A8
:1032900055D1FFF7FDFDF8E7A1F10B030F2B4ED839
:1032A000C8B2FFF715FE0130EFD1032010BD89B27F
:1032B000244BCAB2090A1A605960E6E789B2CAB259
:1032C000214BF7E731F0070339D1204B11F0010F03
:1032D0001A68C1F3800014BF42F0010222F001021B
:1032E0001A601B4B11F0020F1A6814BF42F0200243
:1032F00022F020021A60FFF76FFFC6E731F00100ED
:103300001DD1144B197010BD01F118031F2B16D8D5
:103310000D23114A52F83340D800A14204DC024484
:1033200012790E4B1A60B0E713F1FF33F2D2ACE71B
:10333000C9B20B4B49311960A7E7012010BD02202B
:1033400010BD00BFC8850840D085084000860840F1
:1033500024860840FB410020E0C62000408608404B
:10336000588608400B280DD1082A0DD161B1074BB2
:10337000074A083111F8010D43F8040F9342F9D1BF
:10338000002070470120704702207047A485084044
:10339000C485084070B52F4D2B6813F0400308D04A
:1033A0002D4E3368DCB21B0605D5ED222B4B1A607F
:1033B0001A60002070BD042CF7D9023C8C42F4DC6A
:1033C000E4B2032C2FD001190139032000F0E6F9F3
:1033D000234B611E43EA0111032000F0E9F90320A9
:1033E00000F0F0F9032000F005FA032000F00EFAD7
:1033F0000028FAD131681B4B493949B2197033683A
:10340000194E18063370D0D589B2042006F028FB77
:103410003178032001F07F0106F022FB134B1B786B
:1034200043B1204670BD336803703368437033681E
:103430008370DFE72B685A06F3D52B681B0603D58C
:103440000B4801F05FF9ECE7ED22044B1A601A60BB
:10345000E7E700BF4C8608402888084038880840C5
:1034600002C0010CC6560020C3560020C4560020DE
:1034700050400020F8B5294F3D7815F001054BD19B
:103480000124F822264B7F261C605C609C60A3F51B
:103490009323A3F514731A600922C3F8902115220F
:1034A00070331A600B2203F59B2303F59E731A6099
:1034B0004022A3F59B23A3F5F0731A601A6842F02B
:1034C00020021A60D52243F81C5CDE62DA61154BDB
:1034D0001878FFF7FDFC4FF48042134B02201E606A
:1034E000124B1A6100F07AF91149022000F056F9E6
:1034F000032000F073F90E49032000F047F90D4B4B
:103500001878FFF769FE29460B4801F0E3F83B788D
:10351000204623433B70F8BD0020F8BDC55600206F
:10352000A8200D40FA4100209486084000E100E008
:1035300028880840C45600205040002038B5038831
:103540000446002B34D040F20342934203D00023C0
:103550000380032038BD194B18781A4628B11B7810
:103560004BB3174B1B78580625D5822923D11378E6
:1035700073B906F01BFA06F0AFF98021FFF70AFFD6
:10358000002805DD80B206F08BF90E4B1B699847C9
:103590000B4B1A7852060BD500221A700A4B1D6885
:1035A000FFF776FCFFF766FFAB0601D0FFF75AFC8A
:1035B00040F203432380012038BD00BFC4560020E1
:1035C000C5560020A4C72000488608400B282DE9D6
:1035D000F0478A4611D1082A40F0818000297ED028
:1035E000404B414A01F1FF3A53F8041D93420AF857
:1035F000011FF9D10020BDE8F0870C286CD1042A06
:103600006DD100296BD0394A39491368DFF8EC9045
:1036100023F0070313600B68DFF8E48043F008032E
:103620000B60D9F80030D8F800401068DFF8D4C03B
:10363000DFF8D4E020F070001060DCF80000DEF865
:103640000050DBB2240243EA0563A4B22343002402
:10365000000400F47F00034326480668F5B244EAFC
:10366000030613682F4623F0070343F0010313609A
:103670000B6843F008030B60D9F80030D8F800104D
:103680001568DBB225F0700545F010051560DCF813
:103690000020DEF80050090289B243EA05631204F3
:1036A0000B4302F47F021343026844EA03085FFA03
:1036B00082F9FFF7D9F8B6EB080667EB0907F903BB
:1036C00005460D4A0023F00341EA564107F028F968
:1036D000281ACAF800008DE70120BDE8F087022013
:1036E000BDE8F087C8850840A885084010880840D4
:1036F000048808401C8808400048E80114880840F5
:1037000018880840248808402088084008B5054BE0
:103710001B7813B9044800F0F5FF0022034B1A6030
:1037200008BD00BFC4560020504000203488084027
:10373000064B07481A68042A1FBF06490A7842F058
:1037400040020A7000221A6000F0DCBF2C8808409A
:1037500050400020C556002010B5094C40220021E1
:10376000204607F06FFB0122064B1A604FF480429F
:103770005C60054B5A604FF400425A6010BD00BFB8
:103780000040002004F00F4000E100E003289EBF4D
:10379000014B0001195070470040002003289EBFD4
:1037A000024B03EB00104160704700BF0040002057
:1037B00003289EBF024B03EB00108160704700BFDF
:1037C00000400020032806D80123034A03FA00F032
:1037D000116808431060704728F00F40032806D88E
:1037E0000123034A03FA00F0116808431060704790
:1037F00020F00F40032806D80123034A03FA00F003
:10380000116808431060704714F00F4003289FBFF1
:10381000044B03EB0010806800F0070088BF002015
:10382000704700BF004000204FF0FF32014B1A608C
:10383000704700BF04F50F400122014B1A6070472A
:103840004CF00F40084B19461A68D002FCD4074BC5
:103850001A6822F480321A600A68D203FCD41A680B
:1038600042F400321A60704704200D4000200D40E1
:1038700010B5094C226890070DD0084B1A461968FC
:103880004901FCD413685B01FCD5FEF7D7FFFFF7B5
:10389000D9FF0023236010BD58200D4004200D40A7
:1038A00038B5264B1C6814F03F0414D1244D55F84C
:1038B000243023B1984770B10134052CF7D1214D44
:1038C0002B7843B1FEF7CAFF0446FEF7CDFF201A5E
:1038D000092800D90CB930BF38BD1B4B1A6822F437
:1038E00000321A60194A11461068C002FCD41A68E6
:1038F00042F480321A600B68DB03FCD5FEF7B4FF9C
:10390000201A092803D8BDE83840FFF79BBF632879
:103910000F4C0BD92B78022B08D1236000F0A8FEA6
:1039200030B1FFF78FFF0023236038BD0123F4E798
:10393000FEF794FF0028CED1F3E700BF4886084089
:10394000D4420020C756002000200D4004200D4026
:1039500058200D400023064A52F82310814206D019
:1039600011B942F8230070470133052BF4D1704799
:10397000D44200200022054B1A60054A136943F027
:10398000040313610222034B1A70704758200D4044
:1039900000ED00E0C75600204FF4803210B5064B12
:1039A000064CC3F89021C3F89020206818B100F0AD
:1039B000A9FE0023236010BD00E100E0E8420020E2
:1039C00030B5184B1A78431E1AB9174A1278122AC2
:1039D00006D001F52011154A273191421CD130BD86
:1039E000134A12784B2AF4D14A0802F12814B4F190
:1039F000281F07D1002301F52011273110449342DD
:103A000005DB30BD14F8015D03F8015FEFE711F845
:103A10000149C4540133F2E711F8010903F8010F19
:103A2000DBE700BF2B0028002A0028002700280021
:103A3000290028000FB407B504AA52F8041B044853
:103A4000019200F021F803B05DF804EB04B0704778
:103A50006040002070B505460C460A4E102C07D871
:103A600074B12B68224668680649BDE87040184763
:103A70002B68102231466868984710B9103CEDE772
:103A8000204670BD4EC920002DE9F04F80461546F6
:103A900000268FB00791079B1B78BBB1079F00E002
:103AA00027463C4614F8013B0BB1252BF8D1079B68
:103AB0009F4210D0A7EB03094A46D8F80030079977
:103AC000D8F80400984728B14FF0FF3630460FB0C1
:103AD000BDE8F08F4E443B78002BF7D07B78002B6D
:103AE000F4D021460024084610F8012B0B462B2A5F
:103AF00039D02DD8202A39D0232A3AD0A2F1310743
:103B0000082F3FD84FF0000A0B4611F8012BA2F105
:103B10003000092830D91A782E2A4FD159785A1CEA
:103B2000A1F13000092842D8002711781346A1F1ED
:103B30003000092802F1010234D91A786C2A40F0C9
:103B4000AA805A786C2A3CD144F0800402333BE0CE
:103B50002D2A04D0302AD1D144F0100401E044F0E1
:103B600001040146BFE744F00604FAE744F002040A
:103B7000F7E744F00804F4E70A2303FB0A2AAAF152
:103B8000300AC1E72A2A0AD1D5F800A00346BAF1C3
:103B9000000F05F10405B8BF44F00104BBE74FF086
:103BA000000AB8E70A2303FB0717303FBDE72A29BD
:103BB00003D12F6802330435BFE713464FF0FF37B8
:103BC000BBE7013344F060041A78642A00F0908067
:103BD00000F28380462A00F0AD806FD8252A00F0DD
:103BE000BE8064D8002A3FF471AF0133079304F418
:103BF000E063B3F5806F00F0698200F2B380B3F543
:103C0000807F00F0F380B3F5407F7FF444AF8B4BAF
:103C100014F4804F8A4A18BF1A460DF1330300216D
:103C20001F462868043550EA010E40F08982FF1AC9
:103C300004BF302203F8012C4FF0780208BF03F1D3
:103C4000FF3303F8012C4FF0300208BF012703F8BF
:103C5000022C23220337BA458CBFAAEB070A4FF088
:103C6000000A14F00104A3F1030903F8032C06D1A0
:103C700051464046FFF7EEFE00287FF425AFD8F806
:103C800000303A464946D8F80400984700287FF4A7
:103C90001BAF3E4448E2682A96D15A78682A02D17E
:103CA00044F0200452E7013344F040048CE7412AF9
:103CB0004CD0452A99D144F4424496E7582A33D04F
:103CC00004D8472A91D144F4A1348EE7612A3AD02E
:103CD000632A8AD144F4A06487E76E2A3CD00AD8CC
:103CE000662A24D029D3672A2AD0692A7FF47DAF97
:103CF00044F4245479E7732A2BD007D86F2A10D0C4
:103D0000702A7FF472AF44F440746EE7752A05D0D0
:103D1000782A7FF46AAF44F4C85466E744F4106428
:103D200063E744F4885460E744F4B2445DE744F444
:103D300000745AE744F4844457E744F4024454E7D7
:103D400044F4813451E744F4C1344EE744F4E1349F
:103D50004BE744F4806448E744F4E06445E744F406
:103D6000C06442E7B3F5C06F34D0B3F5E06F00F044
:103D7000F681B3F5A06F7FF48EAEBAF1010F2B6818
:103D80008CBF0AF1FF3A4FF0000A14F0010405F16C
:103D900004058DF8203007D151464046FFF75AFE02
:103DA00000287FF491AE5644D8F80030012208A9CB
:103DB000D8F80400984700287FF486AE0AF101077E
:103DC00034B151464046FFF745FE00287FF47CAEF3
:103DD0003E4460E6D8F8003001221A49D8F80400C1
:103DE000984700287FF470AE013654E6002FACBF30
:103DF00024F01004012714F40053069304F0E003A8
:103E000000F0D480402B00F0CA800AD8002B00F0CC
:103E1000C980202B18D000220023CDE900230023E5
:103E200020E0602B00F0BE80802BF4D1073525F018
:103E3000070303F10805D3E9002309E06EC9200058
:103E40007FC92000A1C9200095F90020D3170435AF
:103E5000002A73F10001E0DA524263EB4303CDE93B
:103E600000230123059304F4C053B3F5805F00F0F1
:103E7000C880B3F5C05F00F0EA80B3F5006F40F092
:103E80000181DDE90023CDE902230DF1360BDDE9E7
:103E90000223134340F0C9800DF13603A3EB0B035B
:103EA0000293029B41F60802BB4238BFFF1A41F25F
:103EB000080304EA020228BF00279A4202D1002F19
:103EC00008BF012741F60801029B8A4203EB070065
:103ED00040F0DC80DDE90023134300F0D780A249E5
:103EE00014F4804FA14B4FF0020908BF0B46069A0D
:103EF00072B1059A002A40F0CD8004F00602022A31
:103F000000F0CC80062A9A4A04BF4FF001091346FC
:103F100009EB000292458CBFAAEB020A4FF0000A9F
:103F200014F00102009204D1E10640F1BB80574435
:103F30009246B9F1000F09D0D8F800404A46194618
:103F4000D8F80400A04700287FF4BEAD3C46029B91
:103F50001E44102CD8F8003000F2AE803CB122464E
:103F60008449D8F80400984700287FF4ADADD8F80C
:103F70000030029A5946D8F804004E449847002869
:103F80007FF4A2AD009B3E44002B00F0D080514650
:103F90004046FFF75FFD002800F0C98094E5B5F9C1
:103FA000002053E72A680435D31751E7402B1FD070
:103FB00009D8FBB1202B14D0002300220593002345
:103FC000CDE900234FE7602B14D0802BF4D10735C7
:103FD00025F0070303F10805D3E90023CDE9002309
:103FE00004E02A780023CDE900230435069B39E755
:103FF0002A88F7E72B68002219460435CDE900121C
:10400000F4E70DF1360BDDE9002352EA03013FF43A
:1040100043AF02F0070130310BF8011DD10841EA2E
:104020004371D8080A460346EFE7DDE902010A2298
:10403000002306F075FCDDE9020130320BF8012D9A
:1040400000230A2206F06CFCCDE902011FE74A4B6F
:1040500014F4804F0DF1360B484918BF1946DDE9BD
:10406000002352EA03003FF417AF02F00F00085C90
:104070004FEA131E0BF8010D100940EA03700246C7
:104080007346EEE70DF1360B002309E74FF0000908
:104090004B462CE74FF00109394B39E74FF0010946
:1040A000384B35E7514640460593FFF7D3FC059B57
:1040B00000283FF43EAF07E510222E49D8F804004F
:1040C000984700287FF400AD103C42E7D5F800B0D7
:1040D0000435BBF1000F2ED0D94699F8003009F114
:1040E000010233BBA9EB0B09002F02DBB94528BF46
:1040F000B946CA458CBFAAEB090A4FF0000A14F072
:10410000010406D151464046FFF7A4FC00287FF485
:10411000DBACD8F800304A465946D8F80400984736
:1041200000287FF4D1AC4E44002C7FF430AF5644CD
:10413000B1E49146D1E7DFF850B04FF00609D3E77C
:1041400000F00F0E12F80EE04FEA111C03F801ED1B
:104150004FEA101E4EEA017E7046614663E52B6809
:1041600004351E6097E400BF90C9200093C9200069
:1041700098C920005EC920006EC920007FC92000B8
:1041800096C9200053C820009AC92000F8B50388BA
:10419000064615462BB14A2B17D000230380032077
:1041A000F8BD164806F0DDFF044634B90122144B71
:1041B0001A704A2333800120F8BDA168201D06F043
:1041C00058FF2468F1E7246805E08829F3D10B48FB
:1041D00006F0C7FF0446002CEBD0231D9D42F2D110
:1041E0002146064806F0C6FF064D62692F682A6020
:1041F000A2690AB1E06990472F60DAE7EC4200203B
:10420000C85600207844002010B50024054B06480D
:104210001C7006F0A3FF2146BDE81040034800F0E3
:1042200059BA00BFC8560020EC4200206840002068
:1042300070B50446E3610B4B049D1B786561A26178
:104240006BB1094D094B2E68201D2B6006F011FF44
:104250002E602146BDE87040054806F0A0BFA16071
:10426000F7E700BFC85600207844002068400020CF
:10427000EC42002013B5034C24680094FFF7D8FFEC
:1042800002B010BD7844002070B5094B05461B787C
:104290003BB1084C084B26680430236006F0F2FE60
:1042A00026602946BDE87040044806F078BF00BF8C
:1042B000C85600207844002068400020EC420020CE
:1042C00070B5094B05461B783BB1084C084B266876
:1042D0000430236006F0DFFE26602946BDE870400A
:1042E000044806F05CBF00BFC85600207844002098
:1042F00068400020EC42002010B5084B04461B78B3
:1043000043B1043000F0C0F82146BDE81040044835
:1043100006F030BFC3600361F6E700BFC856002057
:10432000EC42002010B50446FEF770FA94E80C0049
:104330001344C01A024B98428CBF0020012010BDCC
:10434000FEFFFF7F10B50C4C236813B90B4A1360B6
:1043500010BDFEF751FA226892E80A000B441B1ABE
:1043600092680AB90344F1E792E812002144091A5D
:104370008B4228BF0B46F3E7F4420020F0420020B6
:10438000014800F0BFB900BF784000202DE9F84394
:104390000388054633B1592B46D000230380032000
:1043A000BDE8F883234A136059232B800120BDE820
:1043B000F88301209B681BB90028F5D00B60F3E758
:1043C000DC68A242F5D000B10B6099680029EBD0FF
:1043D000C86882420ABF89680B469960F5E782295E
:1043E000E2D1144F4FF00009B84600263C68002C7B
:1043F000DAD0204606F07AFE98B122468821E0689D
:1044000000F040F958B9E060A3682EB1B360C4F879
:104410000890FFF797FFE8E7C8F80030F7E7FFF7E5
:10442000AFFF2646A468E2E78729D8D101490020DA
:104430000B68C0E7F442002010B50446FFF7A0FF68
:10444000E3680B4A0BB1136833B90A4B1B68E3608E
:1044500013681460A36004E0A34206D1054A126801
:10446000DA60BDE81040FFF76DBF9B68ECE700BF66
:10447000F442002078440020024B1868003018BF36
:1044800001207047F442002010B50B4A044613681F
:10449000834208D183681360FFF754FF0023A360B1
:1044A000E36010BD1346002BF8D09A689442F9D10E
:1044B000A2689A60F0E700BFF442002038B5836834
:1044C00004460D469BB10A4804600220A07304F123
:1044D0000C0098470238012801D9832D05D12146C7
:1044E0002046BDE8384000F005B80123A37338BD6D
:1044F000784400202DE9F8431C4F89463D681C4E46
:104500002C46D6F80080844204D00CB9BDE8F8836C
:104510002468F8E7ACB1A37B63B10023A37395B91A
:10452000A3683BB14C4505D034602A46832104F191
:104530000C0098473B689C420FD123683B60C6F84B
:104540000080BDE8F883AC4204D02246872128468B
:1045500006F0B2FD2D68E2E71346002BEFD01A6893
:104560009442F9D122681A60E9E700BF7C44002038
:1045700078440020002370B501261D46084A1370B8
:10458000084A146804B970BDE37B33B1A673E573C0
:10459000002282212046FFF791FF2468F2E700BF46
:1045A000CC5600207C440020024B1878421C1A7024
:1045B000704700BFCA5600208A22064B1A7000239B
:1045C000054A1370054A1370054A1360054A1360C3
:1045D000704700BFCA560020C9560020CB560020A5
:1045E0007C440020784400202DE9F0411B4D2B78BD
:1045F0000BB1FFF7BFFF1A4C22789AB10C21194E6C
:10460000194F3378013A5943781817F8018001336C
:104610004768806803F01F033370227090B9134B12
:104620001E6826B92B7820781844BDE8F0812B78D5
:104630000BB1FFF79FFF30463A46414606F03CFD7E
:104640003668EEE7B8F1810F08BF01233A4608BF8C
:104650008373414606F030FDE4E700BFCC560020EE
:10466000CB560020C9560020F84200207C44002090
:10467000024A034B10781B7818447047CB56002031
:10468000CC560020F0B50B4E3378202B0FD00C25E4
:10469000094C0A4F24781C4404F01F046C43013376
:1046A0003D19A86039556A6033700020F0BD0120C3
:1046B000F0BD00BFCB560020C9560020F8420020B4
:1046C00038B5034C256806F0F7FC256038BD00BFFF
:1046D0007844002030B40A4C0A4625682B468342B1
:1046E0000CD04BB950B101210560817320608381EA
:1046F000812130BCFFF7E4BF1B68F0E730BC704796
:104700007C44002038B1837B013B012B9FBF0123F8
:10471000014AC37313707047CC560020024610B58F
:10472000064853600468029B11609360026014B9EC
:104730000846FEF7ABF8002010BD00BF8044002003
:1047400010B5084C206858B1002381682360436885
:104750009847236823B1BDE810401868FEF796B863
:1047600010BD00BF8044002070B505880446672D49
:1047700008D0792D32D06DBBFFF716FF1A4B187099
:104780001A4B1D601A4E194D304606F0D7FC431CDB
:1047900003D167232380012070BD0A282B6806D02F
:1047A0007E2BF1DC5A1C2A60124AD054ECE75A1CCA
:1047B0002A6000250F4A2846D5540B4B1978FFF77D
:1047C00061FF0D4B2A4685211868FFF75BFF38B95A
:1047D0007923DFE700230380032070BD8529DAD128
:1047E0000022024B1A60CDE74B6900208444002070
:1047F00088440020CD560020784400200D2810B5B4
:10480000014616D00C4C237853B90C4806F083FCB3
:1048100008B9012323700A48FFF774FF012010BD77
:104820000A28F8D1054806F076FC0028F3D00023CA
:10483000F0E7002010BD00BF4D5700208844002045
:104840008840002008B505490548802206F05CFC38
:10485000BDE8084000210348FFF73CBF4E57002049
:1048600088440020884000202DE9F0410488064655
:10487000772C21D07E2C43D0002C3CD1FFF794FE26
:10488000294D2A4B2A4FDFF8B48018702C602B6812
:1048900057F8232032B9274A137077233380012039
:1048A000BDE8F08108F80340936800218020984714
:1048B0002B6801332B60EAE700231F4A13601A4A72
:1048C0001360194B1B4A1B6812789A4204DC1A4B7E
:1048D0001B68002BF0D1E0E7184AD256002A1EDAF6
:1048E000134A002052F82320104B1978FFF7CAFE14
:1048F00050B97E23D2E7002303800320BDE8F08176
:104900000A4B1B788B42CAD1074B0C491A688B5C47
:1049100003F07F038B54084A136801331360024A83
:1049200013680133CCE700BF944400204C69002099
:1049300040400020CE5700209044002047690020CE
:1049400010B40A4B0A491A780023934203DA51F84B
:104950002340A04208D107490748CA5C62F07F02A1
:10496000CA5410BCFFF7CEBE0133EEE7CE5700208D
:10497000404000204769002098400020064A136804
:1049800043F004031360054B186804331B6840EAC6
:10499000032080B2704700BF00700D4014700D40BE
:1049A00010B5174A136823F00C0313600122154B4E
:1049B0001A601A68012AFCD10822134B13491A60A5
:1049C000E32203F505731A601A460B68DB07FCD572
:1049D0000F4C102100232068013900F0010043EA48
:1049E00000034FEA43039BB2F5D1002BF1D00949F4
:1049F000180A03F0FE0308600B60EF23136010BD7C
:104A000000700D40A8200D402486084064860840B0
:104A10009C86084014700D402DE9FF47224C234D21
:104A200004F108030FCB8DE80F002B786F4694F844
:104A30000780BBB13A221E49A2710A88D21A92B2EB
:104A40000A80A2F128010812207103F128002044F5
:104A5000C3F1040361712C3A011D184406F08EF96C
:104A600000232B70134806F07CFB0646DFF840A0BD
:104A70002EB90F4B2E701E8004B0BDE8F087D6F81B
:104A80000490B9F1000F09D0BAF800302A782C3B15
:104A900038329BB2224441463846C847304606F079
:104AA0009AFB0646E4E700BF3C5F0020F657002073
:104AB000285F002098440020F8B52B4B2B4C1B7925
:104AC00004F11806E371237E04F10805FF2B2FD1B2
:104AD00095E80F0086E80F003146284600F0B8FA46
:104AE000234D2B78BBB13A222249A2710A88D21AEF
:104AF00092B20A80A2F128010812207103F1280065
:104B00002044C3F1040361712C3A011D184406F0DE
:104B100035F900232B7081222B782833E518E254D5
:104B200000236B706B8006F01DFCC0436880F8BDED
:104B30002F46114A3B4603CBB342106051601F46DB
:104B400002F10802F6D196E80F0085E80F000A4B43
:104B50000A4D03F110062A4618685968083303C243
:104B6000B3421546F7D1BBE7BC5D00203C5F002097
:104B7000F6570020285F0020F04F0020545F0020EF
:104B800038B504460B480D4606F0EBFA08B901208B
:104B900038BD0379A34204D143799D4204D0FF2B51
:104BA00002D006F018FBF1E78368002BEFD098479E
:104BB000002038BD9C4400200146014806F0EFBAB1
:104BC0009C4400202DE9F74F474D81462B788846BD
:104BD000924653B1454A9B5C3A2B0ED10023444A7E
:104BE0002B70138003B0BDE8F08F424B9A793A2ABC
:104BF00003D193F92830002BF0DA3F4C04F06CFA23
:104C00003E4A2746934604F11006234603CBB3429F
:104C1000106051601C4602F10802F6D1344E354C4A
:104C20003388214630339BB2B3F5A06F88BF4FF471
:104C3000A063338032882B78D21A04EB4300303AD9
:104C40003030019306F09AF8602222700022019B16
:104C5000627062803A22002B43D084F82820284BCF
:104C60001B79E371238973B9638963B9A38953B944
:104C7000E38943B9238A33B9638A23B9A38A13B971
:104C8000E38A002BAAD01F4B0FCB87E80F009BF8BD
:104C90000030FF2B05D1B9F1040F9FD1B8F1020FFD
:104CA0009CD11649174800F0D3F92F78504607F1E8
:104CB0002803E21804F8039082F8018001F066FCF2
:104CC000114BD8513388283B1A1263712B7822710B
:104CD00028331C440023638006F044FBC0436080FB
:104CE00080E7A271BBE700BFF6570020645F002099
:104CF000285F00203C5F0020545F0020F04F002020
:104D0000BC5D0020445F0020685F00202DE9F04179
:104D10001E4660231A4C0F46237000236370638085
:104D20003A230546A371174B90461B7900F1100EEC
:104D3000E371331D1A122271637104F118021346D4
:104D400028686968083503C375451A46F7D10E49C6
:104D50002C36A1F1100000F07BF90C4B1B782833A6
:104D6000E518E754002385F801806B8006F0FAFA15
:104D7000C043074B68801E80BDE8F04102F088BE4A
:104D80003C5F0020BC5D0020545F0020F6570020EF
:104D9000285F002008B50448FFF70EFFBDE8084073
:104DA0000248FFF709BF00BFB4400020A840002020
:104DB0002DE9F341154D009104460E4690461F46DD
:104DC0000195034620220321114806F05DFA0128CF
:104DD0002B4618D12A6804F11001107020462A6869
:104DE000023250F8044B884242F8044BF9D118685B
:104DF000089B86744361099B80F813800777836161
:104E000002B0BDE8F0810020FAE700BFA84400200E
:104E1000B85E0020F8B507460B4E0C4D2E6060368C
:104E20002C68B44201D30020F8BD237833B1A27CB2
:104E30003946D208A01C05F0FBFE10B120342C60CE
:104E4000EEE70120F8BD00BFB85E0020A8440020B6
:104E5000802313B5074C00930194034620220321BD
:104E6000054806F011FA10B9206802B010BD002004
:104E7000FBE700BFA0440020D45D002030B548F21D
:104E8000FE040B490B4A1160603113688B4202D358
:104E90000023184630BD1D783DB1451C02D09D7CD5
:104EA000854202D15D88A542F3D020331360ECE740
:104EB000D45D0020A0440020802337B50F4D00931F
:104EC000044603460195122205210D4806F0DCF93F
:104ED00001282B460FD12A6804F1100110702046DA
:104EE0002A68023250F8044B884242F8044BF9D148
:104EF000186803B030BD0020FBE700BFA4440020C9
:104F0000585E00208023F7B5204C009305460346E9
:104F10000E4617460194202203211D4806F0B4F9DD
:104F2000012831D12A46236805F110011870236841
:104F3000023352F8040B8A4243F8040BF9D120687B
:104F4000C774D6B9012303750121236811489974E8
:104F50000223FF2243700023027043808380C380BA
:104F600003818372C17202736B7B4373EB89C381CC
:104F7000FFF7A2FF206803B0F0BD002331460375A0
:104F8000183006F06FF8DFE70020F4E7A0440020B7
:104F9000D45D002000500020802313B5074C0093FF
:104FA0000194034612220521054806F06DF910B957
:104FB000206802B010BD0020FBE700BFA444002021
:104FC000585E002038B50546C8B102220C480024BE
:104FD0004270FF2301224480C2728480C480048115
:104FE000847203730370EB7B43732B8AC381FFF7D7
:104FF000D3FF044A106008B106F06AF92C7038BD7E
:1050000000500020A444002038B50E4D0E4C256001
:1050100060352068A84206D300F0F8FABDE83840B1
:105020000A4806F02FB8037843B1037D33B918302E
:10503000FFF778F910B12068FFF7C4FF2368203329
:105040002360E6E7D45D0020A0440020185F002024
:105050002DE9F84F48F2FE030A8805469A420F46AA
:105060002ED00A78FF2A2BD000241D49A04689465D
:105070009B461C4A0A6002F1600AD9F80060564556
:105080000AD314BB2C806C80AC80EC802C816C81AA
:10509000AC81EC81BDE8F88F33786BB1B37C012B28
:1050A0000AD173885B4507D0B11C384606F01DF95C
:1050B00080459CBF344680462036C9F80060DCE756
:1050C0000120FFF7DBFE0446DBE7A31C123453F894
:1050D000042BA34245F8042BF9D1BDE8F88F00BF9B
:1050E000A0440020D45D002070B5094EB06845088A
:1050F000FFF744FC0446FFF741FC2402B268A4B267
:105100002044B0FBF2F302FB1300284470BD00BF43
:10511000BC5D002073B52F4C01F056FA00F094F8F6
:10512000602200212C4805F08DFE0021F822204647
:1051300005F088FE2022294B40261A701822284BA1
:1051400026711A704FF4A0632360264B0025A360DC
:10515000FFF7CAFF42F21073236148F2FE03E060DA
:105160002575214C2A46238065802B46A580E58045
:105170003146019500952046FFF71AFE20461B494F
:1051800006F0AAF8294601222046FFF7BBFE40F2AE
:10519000FF264FF480732046E38126806580A5803A
:1051A000E58025816581A581FFF786FE4FF40073B8
:1051B000204626806580A580E58025816581A581C2
:1051C000E381FFF779FE0C21094802B0BDE8704089
:1051D00005F04FBFBC5D0020B85E0020B55E00202A
:1051E000B45E0020C027090000500020345F00207A
:1051F000185F00202DE9F047054610480F469046FD
:1052000005F0AFFF0446DFF83890DFF838A00CB99E
:10521000BDE8F087012D0DD8504605F0D5FF0346B7
:105220004246394628466668B047204605F0D3FF17
:105230000446ECE7D9F80030F2E700BFF045002063
:10524000F44500202C45002008B50B4805F0C6FFAA
:105250000A4805F083FF0A4B0A49186804F038FA37
:10526000094805F0BBFF094805F078FFBDE8084094
:10527000074805F073BF00BFEC400020F845002050
:10528000CC40002029B32000C04000202C45002045
:10529000F045002008B540B1044B4168186806F09D
:1052A00053FFBDE8084006F066B808BDCC400020BA
:1052B000014805F056BF00BFF845002008B506F0CC
:1052C0005CF838B1044B0146186806F02AFF00303C
:1052D00018BF012008BD00BFCC4000202DE9F041DF
:1052E00080460027FFF7E4FF3C4605461DB9BCB9E0
:1052F0002046BDE8F08195F82460B7420AD8F2084C
:1053000005F10801404605F093FC18B9802E06D03F
:1053100037462C46284606F003F80546E6E72C46B5
:10532000064805F01EFF8442E2D02146034805F0FE
:1053300021FF2146014805F03FFFD9E7F84500204D
:1053400038B5044600283FD04368002B3CD00146C6
:105350001E4805F00FFF6368586805F002FF054618
:1053600068B343689C4226D163682946586805F0B3
:1053700001FF6368586805F0F4FE28B9636859684E
:10538000134B186804F052FA2146124805F04AFF00
:105390002946114805F046FF104A20461368013B94
:1053A0001360FFF777FF04F108010246BDE83840BB
:1053B0000320FFF71FBF284605F00DFFCFE704F1DC
:1053C000080002F0CDFACFE738BD00BFF845002055
:1053D000CC400020EC400020E0400020F4450020BC
:1053E00010B5044680B1406870B105F0BAFE30B91E
:1053F000064B2146BDE81040186804F017BA406813
:10540000FFF79EFF6068F0E710BD00BFCC400020B2
:105410002DE9F84F804610468A46914605F0ADFFCB
:10542000834618B900242046BDE8F88F4046FFF7B0
:1054300055FF044660B1FFF72DFF014628B1102249
:10544000484605F0F5FB0028EDD02046FFF778FF31
:10545000284F3B68102BE5D0274E5946306806F0A0
:1054600060FE054668B9034604225946306804F0D8
:105470005FF905460028D5D000236860036005F079
:105480006DFE1E4805F0BAFE04460028CAD001464B
:105490001B4805F091FE1B4805F0B0FE20B92146DF
:1054A000164805F0BFFEBDE744600146686805F098
:1054B00076FE3B6865600133294630683B6004F046
:1054C000CBF9434604F1080508F110062A4618688E
:1054D0005968083303C2B3421546F7D1002284F855
:1054E00024A0A261E261226241464A460220FFF7FF
:1054F00081FE98E7F4450020CC400020EC400020DD
:10550000F8450020E040002038B505460D4805F07C
:1055100028FE044600B938BDAC420ED121460948E8
:1055200005F028FE2146084805F07CFE221D1146A4
:10553000BDE838400120FFF75DBE204605F04BFE78
:10554000E7E700BF2C450020C040002038B50546E5
:10555000084805F006FE044608B9204638BD10226A
:105560002946201D05F064FB0028F6D0204605F0F2
:1055700032FEF0E72C450020F8B505460F46FFF750
:10558000E5FF044640B9134805F038FE0446E0B193
:105590000146114805F010FE2B46261D05F1100EA0
:1055A000324618685968083303C273451646F7D166
:1055B0006FB1394604F1140005F054FD0023237740
:1055C0002A4629460020FFF715FE2046F8BD012394
:1055D000F5E700BFC04000202C45002038B50A4840
:1055E00005F0BFFD002504460CB9284638BD251D31
:1055F000284601F01DF810B1437C002BF5D1204660
:1056000005F0E9FD0446EFE72C45002038B50D48CC
:1056100005F0A7FD04460B4D04B938BD237F63B9DF
:1056200004F11400FEF77EFE38B12046FFF76CFF50
:10563000284605F096FD0446EEE7204605F0CBFD32
:10564000F9E700BF2C45002037B5124B124D1C78EE
:105650002B7905F10801C4EB03226B7913449BB24B
:10566000ADF80630BDF806302022184480B205F0AF
:105670005DFEBDF8062004F1280192B2294405F030
:1056800055FE18B140BA80B203B030BD4FF6FF707E
:10569000FAE700BFF65700203C5F002002200021FF
:1056A0002DE9F0412A4F2B4D97F800E02A4C0EF1DE
:1056B000280C0CEB05035E782070F6000736864256
:1056C00002DA59B3207029E00CEB000305EB030864
:1056D000EB5C012B37D00CD3632B0ED003F0C0034F
:1056E000802B1ED0C02B28D0402B2CD151B1207044
:1056F00008E00130C0B20121E1E701B1207003F000
:105700006BFC10B90120BDE8F08122783B78134989
:1057100013440B445B7802321A4422700020BDE827
:10572000F08101B12070704400F1280202210420B0
:10573000FFF748FA0220BDE8F08101B120702B7E0E
:10574000FF2BF0D1DEE7821C98F801001044D1E76E
:10575000F65700203C5F0020F7570020645F0020D0
:10576000F0B5C578124B0D44EDB2DD7082780F0AAA
:105770003A44D2B29A70447897425C7006781E70B0
:1057800005D9601CC0B2587008B901361E70C9B284
:105790008D420BDA0132D2B29A703AB95A7801329C
:1057A000D2B25A7012B91A7801321A70F0BD00BF25
:1057B000305F002010B5094C0146236803F1140046
:1057C000FFF7CEFF064A236811781975517859758D
:1057D0009178D2789975DA7510BD00BF60640020A9
:1057E000305F002008B5FFF795FCFFF7D3FA01F012
:1057F0009DF8002319460F4A22F813100133082B95
:10580000FAD1002319460C481A183033B3F5F07F4B
:1058100082F82510F8D14FF48062084B08481A80AE
:10582000002319461A182033B3F5A07F1182F9D14D
:1058300008BD00BF4C6600206464002010500020AA
:1058400060660020F8B5104E357845B10F4F05F170
:1058500027033C88A34203DB00233B803370F8BD61
:105860000B4BA4F12802521B5919184605F086FA71
:10587000641BA4B23C80283C221200F8242C00F8BF
:10588000234C0023EAE700BFF6570020285F0020E2
:10589000645F00200023064A32F81310814203D1CE
:1058A000002122F8131070470133082BF4D1704700
:1058B0004C66002004282DE9F74FB54E00F02E81EC
:1058C000B44FB549B54DB64A03283C680D60156024
:1058D000BA4689466FD194F8253003F00F03032BA5
:1058E00014D1A38B002B40F093800822AD4B1A708B
:1058F00002F002FAAB4B1A78AB4B12F0200100F029
:10590000B88500221A8084F82520A7E0022B7FD1D9
:10591000002305F8073CA54B93F8352042F002021E
:1059200083F83520022283F83C20042283F83D20AE
:10593000002283F83E20402283F83F2032806022FC
:1059400083F83420994D237D05F1180785F8303010
:10595000637D85F83130A37D85F83230E37D85F8AD
:105960003330237E85F82C30637E85F82D30A37E7E
:1059700085F82E30E37E85F82F30238A2B85638AC5
:105980006B8594E80F0087E80F00394605F10800A1
:10599000FFF75EFB94F8253013F0100313BF0023CC
:1059A00085F83630402385F8373014BF85F8363017
:1059B00085F8373023E3022840F09C8000237C4A9E
:1059C00033801370784A13807A4AD3780133DBB27C
:1059D000D37063B993780133DBB293703BB95378DA
:1059E0000133DBB2537013B913780133137094F899
:1059F000253003F0FD02052A13D194F82630013337
:105A0000DBB2782B84F8263002D1002384F82530CD
:105A10000023674A33801370674A1370614A13701A
:105A20003FE1002BF4D0A28B5E48002A5BD094F8B3
:105A30002620511E84F82610002AE9D194F8272048
:105A4000082A04D0591E01290BD8052A09D10023A0
:105A500084F825308023037002F04EF9142200F000
:105A6000CEBC042A94BF0321302103F00F0398BF5A
:105A70009140013B013284F8261084F82720072B3F
:105A8000C6D801A252F823F015612000A95A2000BF
:105A9000B35A2000FD632000115A2000FD6320004E
:105AA000115A2000FD6320000022404B83F835206E
:105AB00031E70423037002F01FF9394B1B68C9F862
:105AC0000030394B1B88002B00F0F384A38B002B94
:105AD00000F0EF8418223C333380344B83F83520B8
:105AE0005022324B2CE703F00F03032B90D10823F5
:105AF0000370FDE6052863D1304B1B681B8A002B21
:105B000086D000230C3D1560274A3B601380082295
:105B10003380244B0D601A7002F0EEF8224B1A8885
:105B2000002A3FF475AF02F13003204C9BB2338062
:105B3000283B19126371214B08321B6852BA21713C
:105B4000197DA2850022E1711121E2851A8AA171D5
:105B500022855A8A04F1180562850FCB85E80F006B
:105B6000294604F10800FFF773FA0B4B04F13C02DD
:105B70001A6005F0FDFBC04380B2002800F0B08140
:105B8000E0856022094B1A7000225A705A8085E025
:105B9000285F0020606400205C640020785F0020A3
:105BA0002C5F0020506400205C6600203C5F0020D9
:105BB000F6570020F1570020F557002058640020C8
:105BC00015F83C3C3C3D03F0F003602B7FF420AF24
:105BD0002B796A791B023188981888423FF718AFF1
:105BE0002832134433802B7AFF2B3FF411AF9D4BA7
:105BF000AA1D1A6000229C4F9C4C3A702270AA7910
:105C000098464AB901232370FFF748FD01283FF465
:105C1000FFAE49D3022841D09548FFF719F9002873
:105C200040F0A6809248FFF7B7F9002840F0A08026
:105C30002B7EFF2B4ED048F2FE002A8B824249D0A9
:105C40002989814246D071B9698961B9A98951B957
:105C5000E98941B9298A31B9698A21B9A98A11B971
:105C6000E98A002936D07AB96A8B6AB9AA8B5AB9FF
:105C7000EA8B4AB92A8C3AB96A8C2AB9AA8C1AB921
:105C8000EA8CB2F5807F25D03388B3F5A06F17D9A1
:105C90004FF4A06200210220FEF794FF0022754B12
:105CA0001A7003B0BDE8F08F3B7803F128022A4454
:105CB000C8F800205278083303EBC2033B70ABE70F
:105CC000EB79012B03D8002203201146E4E7013BC6
:105CD000EB71E3E748F2FE02298991427FF498AE26
:105CE0002A8B82B96A8B72B9AA8B62B9EA8B52B9D4
:105CF0002A8C42B96A8C32B9AA8C22B9EA8CB2F5E4
:105D0000807F3FF485AEFF2B3FF482AE5848FFF70B
:105D100081F8024600287FF47BAE02210120BBE718
:105D2000BBF13A0F5ED006D8BBF12C0F3FF470AE3A
:105D3000521B01214CE0BBF13B0F3FF469AEBBF1BC
:105D40003C0FF5D12378980704D55906F0D443F0D9
:105D5000400324E043F0020321E03B7803F12802F2
:105D60002A44C8F800205278083303EBC2033B7082
:105D7000D8F8002092F800B0BBF12B0F1AD0CFD882
:105D8000BBF1060F00F0B080BBF1110F47D0BBF1A3
:105D9000000FCDD12378D907CAD443F00103237073
:105DA000FFF77CFC01283FF433AED6D302283FF442
:105DB00075AFDDE7237813F00401B9D13A7843F0E9
:105DC0000403237002F128032B44D87810B12A323F
:105DD000042061E7C8F800305B78083202EBC302A8
:105DE0003A70C5E705F0BEFA4FF6FF7398427FF4AC
:105DF0000FAE3B78204AD05C01F024FE3B7828337C
:105E0000EA18E85C5178FEF7BBFE012802BF0023C8
:105E100033803B703388002B3FF4FAAD3EE7FFF749
:105E200011FDEB8D85F806B0A3B9B5F82A80B8F15D
:105E3000000F3FF4EDAD114B114FB5F828B01F60C6
:105E40001D46104B07F5A0772C68BC421CD30022DE
:105E5000042163E705F08CFA4FF6FF7398427FF454
:105E6000D7ADE2E754640020F6570020F557002034
:105E7000545F002050640020645F002058640020BC
:105E800060660020445F0020228AAAB1904513D1A9
:105E9000628A0AB15A450FD122682AB962681AB9D2
:105EA000A2680AB9E26852B118461022214601934D
:105EB00004F0BEFE019B10B120342C60C4E7022028
:105EC0003388B849303B33800023B74A0870B7495C
:105ED000C9F800200A60B64ACAF8003013801BE6F1
:105EE0004FF6FF73E3854CE6FFF7ACFC85F806B090
:105EF00005F03BFA4FF6FF7398427FF489ADB5F891
:105F00002AB0BBF1000F3FF483AD2B8D002B3FF483
:105F10007FADA84C94F82580B8F1000F10D0228AEC
:105F20005A450DD1628A9A420AD110222146A248CE
:105F3000019304F07DFE019B0246002800F0F380EF
:105F40009E4A30349442E5D995F8352002F03F025C
:105F5000022A08D100229A4931F81200584564D02B
:105F60000132082AF8D195F835305A073FF550AD7F
:105F7000142385F835303C233380502385F83430A2
:105F800095F8333095F8310095F82F1085F82F30BB
:105F900095F8323095F82E2095F8304085F82E305F
:105FA000013195F82D3085F82D0095F82C00C9B2F7
:105FB00085F8322085F8313085F82C4085F830009E
:105FC00085F8331061B90132D2B285F832203AB97E
:105FD0000133DBB285F8313013B9013085F8300078
:105FE0002B8D6A8D744C2A856B8504F1100594E81D
:105FF0000F0085E80F0029462046FFF729F8062301
:10600000704CA371704B1B79E3713388283B1A12D3
:1060100063710023227184F83B3084F83A3023877F
:1060200005F0A3F9C0432087ABE500242146614A6F
:1060300092F82500002848D130245E4A04FB012450
:10604000032284F8262084F82420042263825A4BF9
:10605000002784F823200FCB84E80F0001205B4B3E
:1060600084F825001A78A08322765A78CAF800406E
:1060700062769A78DB78A276E37695F82C3084F80D
:106080002270237595F82D3084F82770637595F884
:106090002E30A4F810B0A37595F82F30E375FFF7F4
:1060A00089FB95F8343003F0F002502A32D91A09EE
:1060B0003B46053A9200E91891F83C0050B301289C
:1060C00017D101339342F6DB24E0072807D174B1DE
:1060D00092F8267094F82600874288BF1446013152
:1060E0000A2902F13002A3D1002CA9D190E4144670
:1060F000F5E7022810D191F83D0004280CD191F861
:106100003E2091F83F3043EA0223402B28BF402332
:10611000E38323841022C8E4E91891F83D10002994
:10612000F8D00B44CEE71F4BCAF80040187095F822
:1061300035009B4610F0040F06D084F8252020225D
:106140001A7001F0D9FD63E4338895F83410283BC8
:106150000909A3EB810308F00F089BB2B8F1020F05
:10616000338017D100F03F01122931D00BB98307DA
:106170002ED0E96A636999422AD0800706D5B8F122
:10618000010FC7D0B8F1020F3FF4C5AB102385F85B
:10619000353037E1B8F1010FE8D100F03F010229B5
:1061A000E3E700BF506400206C5F00202C5F0020FC
:1061B0005C66002064640020445F002014660020B8
:1061C0004C6600203C5F0020BC5D0020F1570020A1
:1061D000C10654D5A18B002951D004F118000192B9
:1061E000FFF7BEFABE4B95F8301093F800E0019A25
:1061F0008E4544D195F83110587888423FD195F8B2
:1062000032C0997861453AD195F833C0DB7863455F
:1062100035D1E37694F8273084F818E06076A176DB
:1062200023BB94F8241094F826E094F82230A1EBD4
:106230000E01A1EBD301C9B24FFA81FE0B44BEF1AE
:10624000000FD8B2B8BF4B4294F82310B8BF4FFA32
:1062500083FEA1EB910101EB0E03DBB284F8233046
:1062600003EBD00384F8220084F8243001219D4BF5
:10627000197094F8243084F826300023A38394F80E
:106280002510DFF8608201F00F03013B072B3FF67A
:10629000BFAB01A050F823F0B9622000F9622000E2
:1062A000B3632000F1642000476520007165200081
:1062B0008D612000C764200098F80030DA0713D5FC
:1062C000032384F82530402388F8003000233088E9
:1062D000A38320B1422388F80030FFF76BFA002235
:1062E000814B1A80FFF704BB95F8353003F03F036C
:1062F000022B7FF48DAB0DE798F80030DB074DD50E
:1063000095F8353003F03F03122B47D195F8343020
:1063100003F0F00150291DD91B09053B9B00A9186A
:1063200091F83C00B0B1012803D101329342F6DC70
:1063300010E002282BD191F83D00042827D191F8D4
:106340003E2091F83F3043EA0223402B28BF4023F0
:10635000E3832384032384F8253095F82C3001202F
:10636000237595F82D30637595F82E30A37595F843
:106370002F30E375FFF71EFA42238BF8003000231D
:10638000594AA38333803B701380FFF7B1BAA91831
:1063900091F83D100029DDD00A44C7E720238BF88F
:1063A000003001F0A9FC0022DAF8003083F8252043
:1063B000D9E595F83530D80728D5CA0626D4A38B59
:1063C000002B7FF425AB3088013080B2FFF7F2F963
:1063D0009BF8003043F010028BF8002032881AB18D
:1063E00043F012038BF8003001F086FC0123A383F5
:1063F000082384F82530002384F8273011223B4BF2
:1064000083F835203C233380FFF76ABB9B0610D509
:106410006B8FD9F800005BBA9BB295F83A7095F88B
:106420003B201844338842EA07229B1AC9F800002F
:106430003380308848B1CF0607D498F8003043F055
:10644000020388F80030FFF7B5F995F8362095F883
:10645000373003EB0223228C9BB2934202D8002BED
:1064600018BF1A4698F80030E28399073FF4D0AA83
:1064700035E712F0100008D019800123A38304230C
:1064800084F8271084F82530B8E7198851B1D2076D
:1064900048BFA083A28B52B9E28B914288BF1A8079
:1064A0001B88A383002384F82730FFF706BB1A80DC
:1064B000F8E70C4B1B789F077FF5AAAA3C23102214
:1064C0003380FFF70ABB98F80030DD077FF5A0AAFC
:1064D000002384F82530102388F8003031E600BF0F
:1064E000305F0020506400205C6600203C5F00208C
:1064F000308808B1FFF75EF995F8353013F00103E5
:1065000017D098F80030D80749BF0723062384F82E
:106510002530002352BF84F8253084F82630A38329
:106520000120FFF747F9102388F8003001F0E4FB61
:106530002CE698F80020D10714D50522A38384F80F
:106540002520FFF765BA308808B1FFF733F995F8D1
:106550003530DA0706D5072384F82530002384F880
:106560002630DDE73388002B7FF410AEFFF750BAFA
:1065700098F80030DB077FF54BAA072384F8253015
:10658000002384F82630FFF743BA00BF054BC0F361
:10659000072203EA0023000C40BA134380B240EA0A
:1065A0000340704700FFFF0010B5044640B102F001
:1065B0006BFE044B2146BDE81040186803F036B965
:1065C00010BD00BFF840002008B503F00DFB034BE1
:1065D00003491868BDE8084003F07AB8F840002085
:1065E000A965200070B504460C481E469DF8102091
:1065F000059B006803F09CF8054668B120462B46D1
:1066000004F1100250F8041B904243F8041BF9D126
:106610006E74284602F038FE284670BDF84000200F
:10662000024B0146186805F08FBD00BFF8400020FE
:1066300070B50C4D0646286803F05EF8044676B93E
:106640000024204670BD10223146204604F0F0FAA6
:106650000028F6D02146286805F048FD0446002CA5
:10666000F1D1EDE7F8400020024B0146186805F033
:1066700058BD00BFF840002070B5054610200E46FA
:1066800003F008FA0849044605F08DFD58B9324672
:106690002946204603F046FA324629462046BDE800
:1066A000704002F0C7BD70BD28CA20002DE9F04F30
:1066B000924C87B0E379924FFF2BDFF8649240F061
:1066C00018813A7804F12C0553191B79FF2B00F03F
:1066D0001081224492F82920002A40F00A81894B37
:1066E000894E1A6014229846DFF838A2327004F1FD
:1066F000080B387832782C30B9F8003002449A42CE
:10670000C0F28F8020440430FEF7A2FB7F4B18605C
:106710009846002800F0ED8023897BB963896BB926
:10672000A3895BB9E3894BB9238A3BB9638A2BB947
:10673000A38A1BB9E38A002B00F0DB80DFF8E8A115
:106740005046FEF785FB5646002840F0D28040F2C6
:10675000FF23228B0AF1100B9A4240F0B880638B22
:10676000002B40F0B480A38B002B40F0B080E38B73
:10677000002B40F0AC80238C002B40F0A880638C71
:10678000B3F5807F40F0A38094F82430FF2B40F0D5
:106790009E809AE80F008BE80F003B781D4404357B
:1067A00095E80F008AE80F006022227028226271AB
:1067B0003A22A271FF220023E27188223B706370AB
:1067C0006380237184F82930E02384F82820D8F8E6
:1067D00000204F4E84F82C30931C12323546186836
:1067E0005968083303C593422E46F7D1022349491D
:1067F00084F840300A6884F84130C4F84220464B9F
:106800004A685A600022C4F84A209A81628504F0DE
:10681000A9FD5023C043A9F80030608507B0BDE84A
:10682000F08FA3185978002963D0A25C012A26D1E1
:106830002289C8F8003072B9628962B9A28952B956
:10684000E28942B9228A32B9628A22B9A28A12B98D
:10685000E28A002A4DD053F8020F04AA596803C2F5
:106860005846FFF7E5FE0246CAF8000080B9052346
:106870000190009304A902235846FFF7B3FE327833
:106880003B7813442B445B7802EBC302327030E751
:10689000FFF7C6FE034660B3D8F800001946082289
:1068A0000230039304F0C4F9039B50B1012204A900
:1068B000184605F051FCE0B1DAF8003002225A74B3
:1068C000DDE7DAF800305A7C002AD8D1F6E7134821
:1068D000FEF7BEFAD8F8003083420AD196E80F00DE
:1068E0008BE80F003B782B4404330FCB86E80F0076
:1068F0005AE70023A9F800303B708FE73C5F002087
:10690000F657002084480020F85700207C480020DB
:106910006C5F0020345F00207E5F0020545F002009
:10692000285F002080480020445F00200148FEF7D7
:1069300043B900BF0C410020B8220C4BF0B502FB5C
:106940000032002340F24C5553821E461A46084935
:10695000CC18A77827B15F5C874204BFA6700132CC
:106960007133AB42F4D11046F0BD00BF9048002017
:106970000358002008B5064801F05EF80122054BD7
:10698000FD211A70002299705A70DA7008BD00BF9C
:10699000D56B2000F957002030B513780546087AEA
:1069A00083F0020398421FD1487A537898421BD152
:1069B000887A9378984217D1C87AD378984213D1BD
:1069C000087B137998420FD1487B537998420BD1B9
:1069D000887B9379984207D1C87BD379984203D1B9
:1069E0000320A840C0B230BD0B890E4C6BB94B8957
:1069F000B3F57F4F09D18B89FE2B06D12368CA8955
:106A0000022023F8022B2360EBE7226801F1080340
:106A100003CB083242F8080C42F8041C0120226023
:106A2000DFE700BF004A002010B50E4C0220A1791C
:106A300003F016F8A379112B09D1218D638D9942AA
:106A4000A8BF1946BDE81040012003F009B8062B85
:106A5000F3D03A2B03D1218D49BA89B2F2E7002154
:106A6000F0E700BF3C5F002010B5084C01462378DA
:106A7000012B08D10822A01C04F0DAF800280CBF72
:106A80002046002010BD002010BD00BFF957002097
:106A900008B50146102002F0F1FF044B00219B686D
:106AA00003489847BDE80840FCF762B8C4C7200017
:106AB000B56A200010B50C4611462046FFF7DCFDF4
:106AC000044B1B6813B19B6820469847024B1C601F
:106AD00010BD00BF88480020084A00202DE9F04181
:106AE000002306467122134F02FB03F57C19A078A0
:106AF000C8B9617002F0DEFEDFF840800E4B98F8F6
:106B000000102670401A1E68A0700E4402F0D2FEDB
:106B100098F800200335821A3146781904F0B8F845
:106B2000A078BDE8F08101330C2BDDD14FF0FF30B0
:106B3000BDE8F08103580020104A00204F5D00207E
:106B40002DE9F84315090F2D0646984602F00F046B
:106B500032D00F2C35D01DB12A46304604F098F8BB
:106B60002A190F2A274605DCC2F1100200217019EC
:106B700004F068F9CCB1DFF85880C7F11000D8F8FC
:106B8000009022464946304404F082F8022C05D198
:106B90000A2D9FBFFF23F372FE2333734C44C8F8C2
:106BA0000040BDE8F8831024D6E77DB14146304669
:106BB000BDE8F84304F090BB0F2C00D11024102541
:106BC000CAE7002DEFD110273C46D4E7BDE8F88393
:106BD000004A002000232DE9F04FB94EB94C87B090
:106BE00033702370054602F0E1FE02F075FEB64AEE
:106BF000B64B12681860009601930AB1FFF714FFB4
:106C0000002D40F03081B24904A805F0C7FAB14B1D
:106C1000B14E1A8802933E2A019B40F25682D3F865
:106C20000090AE4D09F102032B60002394F8008020
:106C300006F1180008F1020809F80830FFF714FF00
:106C4000039530B906F10800FFF70EFF002800F0A9
:106C50000C818025039A09F1030313607078327860
:106C6000030943EA0213DBB2990841EA83135BB2DA
:106C700010F00F0FD9B202F00F0740F0F8807288C1
:106C8000002A40F0F4801FB910F0F00F00F00A81E4
:106C90007027924A136803F8011B13608E4B8F4ACA
:106CA0009879112808BF47F0040717F0040F02BFB6
:106CB000116801F8010B1160D979402900F0F480C6
:106CC000FF2900F0F480012940F0F48047F001072B
:106CD000B3F808A0BAF1000F40F004815A89002AE5
:106CE00040F000819A89002A40F0FC80DA89002A6D
:106CF00040F0F8801A8A002A40F0F4805A8A002A6C
:106D000040F0F0809A8A002A40F0EC80DB8A002B69
:106D100040F0E88045F04005DFF8BCB1DFF8BCA1E9
:106D20009BF81830FF2B40F068819BF8192045F044
:106D3000080C022A40F01681BBF81A30002B40F0F4
:106D40001181BBF81C30002B40F00C81BBF81E30C9
:106D5000002B40F00781BBF82030002B40F002816F
:106D6000BBF82230002B40F0FD80BBF82430002B14
:106D700040F0F8809BF82630002B40F0F380DAF8E2
:106D800000309BF8272045F00B0503F8012BCAF8CB
:106D900000302823009A504813708379112B4F4BF1
:106DA00033D1018D0A0A42EA01224FF2B00192B2B8
:106DB00022F00F0E1FFA8EFE8E4540F05F81B0F874
:106DC0002AC04FEA1C2141EA0C2121F00F0189B2AF
:106DD000714540F05381039A1168F3220A70028DC5
:106DE0000231160A428D120A02EB061202F5AA625D
:106DF00001F8012C039A1160374AD18D1A6822F8E4
:106E0000021B1A60302200990A70019A1B681168EF
:106E100022785B1A8F540A445570237004A91020FD
:106E200002F02CFE2E4B1B68984730EA200028BF4A
:106E30001520009A029B17781B882578C0F17D06E3
:106E4000DA1B711B8A4240F30782C0F1780993FB79
:106E5000F9F502F069FB01388542C0F25D8100203E
:106E600007B0BDE8F08F2946CEE60546F6E61B4A98
:106E70007FB910F0F00F0CD1116823F03F030343EA
:106E80000B70154B03315B88682721F8023C1160B9
:106E900004E71148136800686027186003F8041BB2
:106EA0001360FBE67827F9E647F0020710E747F0A2
:106EB00003070DE7106800F8011B106008E700BF2A
:106EC000505D00204F5D002088480020104A0020BF
:106ED00028CA2000285F00203C5F0020004A0020D4
:106EE00098C720008648FFF7BFFD864B186078B131
:106EF000427819F80830824943EA021309F8083049
:106F0000814A0420FFF748FD60F03F00C5B203E767
:106F100048F2FE039A450ED17C494B8B5BB98B8BB3
:106F20004BB9CB8B3BB9784A08310420FFF734FDCD
:106F30000543EDB2F0E6764BDFF8C4C11A689A4615
:106F400096460CF1100B634603CB5B45CEF8000070
:106F5000CEF804109C460EF1080EF4D11032CAF897
:106F60000020D9E6694B598B91BB998B81BBD98B9A
:106F7000B9B9198CA9B9598C99B993F8241081B968
:106F8000DAF8001045F00A05084600F8012B33F83E
:106F9000252F043121F8032C9B788370CAF8001048
:106FA000F7E65A4BD98B99B9198C89B993F8221005
:106FB00071B9DAF8001045F00905084600F8012B10
:106FC00053F8232F063141F8052C1B790371E5E7AF
:106FD000DAF80020DFF83CE115460EF110087346A0
:106FE00003CB4345286069609E4605F10805F6D14C
:106FF0001032CAF800206546CBE60BF11800FFF707
:1070000033FD404B186080B14278002019F80830F9
:1070100045F00405134309F8083004AA0BF11801E0
:10702000FFF7BAFC0543EDB2B3E648F2FE03BBF846
:1070300018209A420CD1BBF81A304BB9BBF81C305F
:1070400033B9BBF81E301BB904AA0BF11801E7E7EE
:10705000DAF80020DFF8BCC096460CF11008634651
:1070600003CB4345CEF80000CEF804109C460EF149
:10707000080EF4D1264B10321A608AE6718D09028F
:1070800089B2B1F5704F0BD1F1211A681170318DB1
:10709000A2F80110718D090AD17004321A60ABE6B2
:1070A00002F47F42B2F5704F1A6807D1F2211170D5
:1070B000318D090A5170718D5180EEE7F021117008
:1070C000B16A053242F8041CE8E741221B682578C2
:1070D0001A706A1CD2B2134406F12807324603CA5A
:1070E000BA4218605960164603F10803F6D1009BB6
:1070F000009A1B7829352833257013708EE600BF5F
:10710000445F00208C480020345F00203C5F00205A
:10711000004A0020545F00200023DFF868B1257882
:10712000CBF80030019B2A461F6804353946381DCC
:1071300003F024FE029B514A1B88EDB21B0A63F048
:107140003F033B70029B761B1B88DFF834817B700A
:10715000138826F00706591C1180FB701A0A009B41
:10716000DFF824A11978BA704144324678192570A5
:10717000CAF8006003F08CFDA81980B202F090FB01
:1071800002F0D8F95F460546564600283FF467AE40
:107190000DF1100A5046FFF77BFC284602F002FA78
:1071A000284602F0E9F9DBF80030012B3FF457AE36
:1071B000043B012B7FF653AE009B29F007001D789E
:1071C0003368DFF8C8B01D4405232370019BADB2BE
:1071D0001A68029B30601B881B0A63F01F03137040
:1071E000029B1B885370BBF800309D4201D30120E5
:1071F00036E6019A5B1B1068EA080271326894F85F
:1072000000909342B8BF3360336808EB05011A461B
:107210004844009303F03CFD009B09EB030080B25F
:1072200002F03EFB02F086F9814600283FF417AEDB
:107230005046FFF72DFC484602F0B4F9484602F0EC
:107240009BF933681D443B68ADB2012B3FF407AE98
:10725000043B012BC7D802E6019B09491868394451
:10726000284403F015FD029B18882844C01B80B2F7
:1072700002F016FB04A8FFF70BFCB8E73251002020
:107280003C5F0020084A00200C4A0020285F0020B4
:107290002DE9F8438046894617464B4D002A57D0C2
:1072A0002B8A83420AD16B8A43B10F2002F0F2FB92
:1072B0000146284604F077FF002840D1B5F8C830D1
:1072C00043453ED1B5F8CA30002B3AD00F2002F02A
:1072D000E1FB01463D4804F066FF90B301245FFAEC
:1072E00084F839464046FFF7F9FB00281DDA6E8A1C
:1072F0004EB15CB3364803F0F9FE064618B10020E3
:10730000FFF71AFB0646B5F8CA3043B13CB931481D
:1073100003F0ECFE18B10120FFF70EFB0644002E2F
:107320000FDD39464046FFF7D9FB002809DDB823B9
:1073300003FB0455AB8A64B21844A88203E000241E
:10734000CDE74FF0FF342046BDE8F8832646DAE764
:107350006B8A93B305F1180003F0C8FE48BB6B8A33
:107360005BB34FF0FF34B5F8CA3043B3194803F0AC
:10737000BDFE10B10120FFF7DFFA631C21D1B5F883
:10738000CA30002BDFD10124B8266643AF19A7F815
:107390001290A7F810800F2002F07CFB01463846BF
:1073A00004F0FCFE06F118004021284403F08CFE96
:1073B000C9E73846FFF7C0FAD1E70024D3E7013424
:1073C000E1D00024E0E700BF9048002048490020B9
:1073D000A8480020604900202DE9F04F002787B021
:1073E000DFF820827D4C0F2002F054FB02F0D6FB28
:1073F00088F80070277002F06FFA794DA246286075
:10740000042002F035FB774B2A6800B218605678EA
:107410001378CDF8008046EA032603F0F803C02B6A
:1074200007D0E02B00F0F080B846B9466E4C3E46DF
:107430001AE09478D0789AF80030C6F30A0604333C
:107440003A46314640EA04208AF80030FFF720FF30
:10745000B0F1FF3F804600F07482B8244FF001097C
:10746000624B04FB003422342B689AF800105A5CFB
:1074700002F0E000602840F04782881C18440B446A
:107480005F785B4D4FFA87FBBBF1000F2860BCBFF4
:107490000130286012F0100F2B4602F0080140F076
:1074A0005181002940F03D81296831F8010FA4F88D
:1074B00001008978E170296811F8040B83082960BC
:1074C00003F00F0141F060012170617803F0300397
:1074D00043EA801301F00F010B43637012F00403C1
:1074E000019305D142490B6813F8010BA0710B60A1
:1074F00012F003020BBF3E4A3E4B13689B5C09BF70
:1075000013F8011BE3711360E1717A06C7F30113ED
:1075100040F14981BBF1000FBDBF314A9AF800101C
:1075200012680021BEBF521895782909002B40F03F
:10753000248104F10805002B40F0318119462E4AC0
:107540000F20D25C0391029202F0A4FA034628466F
:10755000029A0399FFF7F4FA17F0080507F00302FF
:1075600007F0040700F02A81AFB9244B1B88ADF85F
:107570001430531E012B06D81D490B6813F8010B5C
:107580008DF815000B6000231D498A5C05A904F1E4
:107590001800FFF7D5FA009B009A1878144900F1FB
:1075A00028031370019B002B00F047810B681A78A9
:1075B00002F0F802F02A40F040811122A2711A78FC
:1075C00002F0040502F0F302F03A032A00F24E81C1
:1075D000DFE812F022014F015C0166014F5D0020DF
:1075E000104A0020044A00203C5F00209048002000
:1075F000004A0020E3C92000E7C92000D4C92000C8
:10760000EFC92000505D002092F804B09478D07843
:107610009AF80020C6F30A0605328AF8002031469F
:107620005A4640EA0420FFF733FEB0F1FF3F8046A0
:1076300000F08781B822A8494FF0010902FB00122F
:10764000958A3C46B54234BF0025012502F032F947
:107650009AF80020824200F2748102F02BF99AF825
:1076600000109E4A431A01931360009B019A93F8FD
:1076700000A00AEBCB03134440F21452934200F2F1
:1076800060813CB1964B019A1B6804EB0A001944D7
:1076900003F0FEFA002E00F04E814FB1019B8E499F
:1076A0000AEB0302B82303FB081392B29A821A84EE
:1076B000002D00F04981B82303FB08F3864989486F
:1076C000CA18223396821944128C03F0E1FA864CD0
:1076D000844F04F24C5514F8012C52B114F8033CB9
:1076E000984506D114F8020C214607EBC00003F0C0
:1076F000CFFA7134A542EED15FFA88F0FFF71CF99A
:10770000B9F1000F00F02381784B1E80784C23687C
:1077100023B1FFF789F923685B68984700F0A6F961
:107720000FE16021217029680D780331A80800F06D
:10773000300005F00F052843607031F8020C6080BE
:107740001960CBE601F0FF0589B919680878C0F324
:10775000830040F06000207011F801EB65804FEA73
:107760009E0000F0300040EA8E106070E8E7602371
:107770002370002363706380B0E65E4D2A78012A8F
:107780000BD16A788A4218BF00255B4A1560002D2C
:107790007FF4CFAE4F46AB4658E70025F5E7564A93
:1077A00011680231CBE6554A0F20D55C02F072F920
:1077B0002A460346524904F10800CBE61FB3BBF149
:1077C000000FBDBF464B9AF800101B682946BEBF8C
:1077D0005B189D7805F00F01464D2B78012B10D1D9
:1077E0006B788B4218BF0025434B1D60002DD1D014
:1077F000444B10209F5C02F04DF93A460346A91C09
:10780000C5E60025F0E73D4B10209D5C02F042F9F3
:107810002A4603463A49BAE6B3F8012005332285E1
:1078200033F8022C62850B6025B90B6833F8022B04
:10783000E2850B60009B30301870294A0B68126893
:107840009B1A8AF80030002E40D102F033F89AF8E3
:107850000030C01A009B1B7818442838031223718B
:107860006071A379112B01D1A388A3854F46002510
:1078700091E7B3F801202285DA78A2F5805292B21E
:10788000120242F0F00262850433CCE75A78A2F586
:10789000805292B2120242F0F00222855A88F2E738
:1078A0005A7802331209A2F5756292B2120242F0BE
:1078B000F002228513F8012C02F00F02A2F5756286
:1078C00092B2120242F0F0026285ACE7A6F1280300
:1078D0001A1222716371C4E7904800200C4A0020FC
:1078E000104A00203C5F002006580020285F00203E
:1078F00088480020F95700208C480020EBC9200060
:10790000D6C92000E7C92000412A1AD14A1CD2B2A8
:107910001344224603F1280053F8045B834242F8E3
:10792000045BF9D1009B009A1B78293128338AF82F
:10793000001013709AE7B9F1000F08D0002D7FF402
:10794000E3AE07B0BDE8F08FB9F1000FF9D1019BAC
:107950009A44024BA3F800A0D8E600BF285F00209D
:107960002DE9F743054628B9244803B0BDE8F043A4
:10797000FCF760B80488BCB94388B3B9848844BBB9
:10798000C38893B9048924BB4FF6FF7342899A4296
:107990000BD1837B427B017BC07B00901848FCF7B6
:1079A00049F803B0BDE8F08300242646DFF8548090
:1079B000DFF85490AB19A95D5F7807EB0127BFB2E0
:1079C00077B9002C0EDB06D001340236102EF1D12F
:1079D000E7E71C46E9E74846FCF72CF80124F4E702
:1079E000002C08DC16B13A2003F0CAFA39464046AA
:1079F000FCF720F8E9E74FF0FF34F7E7F3C9200080
:107A000002CA200018CA200015CA200008B505487F
:107A100003F04AFB20B1BDE80840024803F03BBB3D
:107A200008BD00BF184A0020024B1B6803B118476D
:107A300018467047144A0020014B1860704700BF79
:107A4000144A002007B5074B8DF80700186828B1C5
:107A5000054B0DF107021978FCF732FE03B05DF813
:107A600004FB00BF446600204E69002008B50022D8
:107A700002210448FCF724FE0023034A1380034A32
:107A8000137008BD18410020285F0020F657002021
:107A900038B5284D2B88002B4BD0B3F5A06F04D9F7
:107AA0000023254A2B80137038BD244C238B73B9D7
:107AB000638B63B9A38B53B9E38B43B9238C33B97D
:107AC000638C23B9A38C13B9E38C002BE8D001F0AD
:107AD0003FFB0028E4D0237EFF2B28D01848FDF779
